{
  "address": "0x570ADc5880D778aE5935f199aa590091586CDf75",
  "abi": [
    {
      "inputs": [],
      "stateMutability": "nonpayable",
      "type": "constructor"
    },
    {
      "anonymous": false,
      "inputs": [
        {
          "indexed": false,
          "internalType": "address",
          "name": "buyer",
          "type": "address"
        },
        {
          "indexed": false,
          "internalType": "uint256",
          "name": "amountOfETH",
          "type": "uint256"
        },
        {
          "indexed": false,
          "internalType": "uint256",
          "name": "amountOfTokens",
          "type": "uint256"
        }
      ],
      "name": "BuyTokens",
      "type": "event"
    },
    {
      "anonymous": false,
      "inputs": [
        {
          "indexed": true,
          "internalType": "address",
          "name": "previousOwner",
          "type": "address"
        },
        {
          "indexed": true,
          "internalType": "address",
          "name": "newOwner",
          "type": "address"
        }
      ],
      "name": "OwnershipTransferred",
      "type": "event"
    },
    {
      "inputs": [],
      "name": "buy",
      "outputs": [
        {
          "internalType": "uint256",
          "name": "tokenAmount",
          "type": "uint256"
        }
      ],
      "stateMutability": "payable",
      "type": "function"
    },
    {
      "inputs": [],
      "name": "owner",
      "outputs": [
        {
          "internalType": "address",
          "name": "",
          "type": "address"
        }
      ],
      "stateMutability": "view",
      "type": "function"
    },
    {
      "inputs": [],
      "name": "renounceOwnership",
      "outputs": [],
      "stateMutability": "nonpayable",
      "type": "function"
    },
    {
      "inputs": [],
      "name": "tokensPerEth",
      "outputs": [
        {
          "internalType": "uint256",
          "name": "",
          "type": "uint256"
        }
      ],
      "stateMutability": "view",
      "type": "function"
    },
    {
      "inputs": [
        {
          "internalType": "address",
          "name": "newOwner",
          "type": "address"
        }
      ],
      "name": "transferOwnership",
      "outputs": [],
      "stateMutability": "nonpayable",
      "type": "function"
    },
    {
      "inputs": [],
      "name": "withdraw",
      "outputs": [],
      "stateMutability": "nonpayable",
      "type": "function"
    }
  ],
  "transactionHash": "0x218f5ba729fe259f92d2d8bdb95c216a34eab7bd96853a95f52058265ee27162",
  "args": [],
  "numDeployments": 1,
  "solcInputHash": "fde03a7db0e06fccf9c772c89ad691f9",
  "bytecode": "0x6080604052600160025534801561001557600080fd5b5061003261002761008c60201b60201c565b61009460201b60201c565b73b7d43b3c22389889a964f89f141b12d5fb1ca804600160006101000a81548173ffffffffffffffffffffffffffffffffffffffff021916908373ffffffffffffffffffffffffffffffffffffffff160217905550610158565b600033905090565b60008060009054906101000a900473ffffffffffffffffffffffffffffffffffffffff169050816000806101000a81548173ffffffffffffffffffffffffffffffffffffffff021916908373ffffffffffffffffffffffffffffffffffffffff1602179055508173ffffffffffffffffffffffffffffffffffffffff168173ffffffffffffffffffffffffffffffffffffffff167f8be0079c531659141344cd1fd0a4f28419497f9722a3daafe3b4186f6b6457e060405160405180910390a35050565b611033806101676000396000f3fe6080604052600436106100555760003560e01c80633ccfd60b1461005a578063715018a6146100715780638da5cb5b14610088578063a6f2ae3a146100b3578063cbdd69b5146100d1578063f2fde38b146100fc575b600080fd5b34801561006657600080fd5b5061006f610125565b005b34801561007d57600080fd5b50610086610225565b005b34801561009457600080fd5b5061009d610239565b6040516100aa9190610b2a565b60405180910390f35b6100bb610262565b6040516100c89190610ca7565b60405180910390f35b3480156100dd57600080fd5b506100e6610656565b6040516100f39190610ca7565b60405180910390f35b34801561010857600080fd5b50610123600480360381019061011e919061092b565b61065c565b005b61012d6106e0565b600047905060008111610175576040517f08c379a000000000000000000000000000000000000000000000000000000000815260040161016c90610c67565b60405180910390fd5b60003373ffffffffffffffffffffffffffffffffffffffff164760405161019b90610b15565b60006040518083038185875af1925050503d80600081146101d8576040519150601f19603f3d011682016040523d82523d6000602084013e6101dd565b606091505b5050905080610221576040517f08c379a000000000000000000000000000000000000000000000000000000000815260040161021890610c47565b60405180910390fd5b5050565b61022d6106e0565b610237600061075e565b565b60008060009054906101000a900473ffffffffffffffffffffffffffffffffffffffff16905090565b60006102a26040518060400160405280600981526020017f546f70206f2066756e0000000000000000000000000000000000000000000000815250610822565b600034116102e5576040517f08c379a00000000000000000000000000000000000000000000000000000000081526004016102dc90610be7565b60405180910390fd5b6103236040518060400160405280600e81526020017f4e65617220546f70206f2066756e000000000000000000000000000000000000815250610822565b6000600254346103339190610ce9565b90506000600160009054906101000a900473ffffffffffffffffffffffffffffffffffffffff1673ffffffffffffffffffffffffffffffffffffffff166370a08231306040518263ffffffff1660e01b81526004016103929190610b2a565b60206040518083038186803b1580156103aa57600080fd5b505afa1580156103be573d6000803e3d6000fd5b505050506040513d601f19601f820116820180604052508101906103e2919061097d565b90506104226040518060400160405280600881526020017f42616c6c616e7473000000000000000000000000000000000000000000000000815250610822565b81811015610465576040517f08c379a000000000000000000000000000000000000000000000000000000000815260040161045c90610c07565b60405180910390fd5b6104a36040518060400160405280600481526020017f5775747400000000000000000000000000000000000000000000000000000000815250610822565b6000600160009054906101000a900473ffffffffffffffffffffffffffffffffffffffff1673ffffffffffffffffffffffffffffffffffffffff1663a9059cbb33856040518363ffffffff1660e01b8152600401610502929190610b45565b602060405180830381600087803b15801561051c57600080fd5b505af1158015610530573d6000803e3d6000fd5b505050506040513d601f19601f820116820180604052508101906105549190610954565b90506105946040518060400160405280600981526020017f4b6e6f7720776865790000000000000000000000000000000000000000000000815250610822565b806105d4576040517f08c379a00000000000000000000000000000000000000000000000000000000081526004016105cb90610c87565b60405180910390fd5b6106126040518060400160405280600881526020017f6865792077686579000000000000000000000000000000000000000000000000815250610822565b7f0a37b72bb67eee30e09084cf386f8a17817c57f620c3ab95fb25d6a20356ec7733348560405161064593929190610b6e565b60405180910390a182935050505090565b60025481565b6106646106e0565b600073ffffffffffffffffffffffffffffffffffffffff168173ffffffffffffffffffffffffffffffffffffffff1614156106d4576040517f08c379a00000000000000000000000000000000000000000000000000000000081526004016106cb90610bc7565b60405180910390fd5b6106dd8161075e565b50565b6106e86108bb565b73ffffffffffffffffffffffffffffffffffffffff16610706610239565b73ffffffffffffffffffffffffffffffffffffffff161461075c576040517f08c379a000000000000000000000000000000000000000000000000000000000815260040161075390610c27565b60405180910390fd5b565b60008060009054906101000a900473ffffffffffffffffffffffffffffffffffffffff169050816000806101000a81548173ffffffffffffffffffffffffffffffffffffffff021916908373ffffffffffffffffffffffffffffffffffffffff1602179055508173ffffffffffffffffffffffffffffffffffffffff168173ffffffffffffffffffffffffffffffffffffffff167f8be0079c531659141344cd1fd0a4f28419497f9722a3daafe3b4186f6b6457e060405160405180910390a35050565b6108b8816040516024016108369190610ba5565b6040516020818303038152906040527f41304fac000000000000000000000000000000000000000000000000000000007bffffffffffffffffffffffffffffffffffffffffffffffffffffffff19166020820180517bffffffffffffffffffffffffffffffffffffffffffffffffffffffff83818316178352505050506108c3565b50565b600033905090565b60008151905060006a636f6e736f6c652e6c6f679050602083016000808483855afa5050505050565b6000813590506108fb81610fb8565b92915050565b60008151905061091081610fcf565b92915050565b60008151905061092581610fe6565b92915050565b60006020828403121561093d57600080fd5b600061094b848285016108ec565b91505092915050565b60006020828403121561096657600080fd5b600061097484828501610901565b91505092915050565b60006020828403121561098f57600080fd5b600061099d84828501610916565b91505092915050565b6109af81610d43565b82525050565b60006109c082610cc2565b6109ca8185610cd8565b93506109da818560208601610d8b565b6109e381610ded565b840191505092915050565b60006109fb602683610cd8565b9150610a0682610dfe565b604082019050919050565b6000610a1e601b83610cd8565b9150610a2982610e4d565b602082019050919050565b6000610a41603483610cd8565b9150610a4c82610e76565b604082019050919050565b6000610a64602083610cd8565b9150610a6f82610ec5565b602082019050919050565b6000610a87602d83610cd8565b9150610a9282610eee565b604082019050919050565b6000610aaa600083610ccd565b9150610ab582610f3d565b600082019050919050565b6000610acd602183610cd8565b9150610ad882610f40565b604082019050919050565b6000610af0602083610cd8565b9150610afb82610f8f565b602082019050919050565b610b0f81610d81565b82525050565b6000610b2082610a9d565b9150819050919050565b6000602082019050610b3f60008301846109a6565b92915050565b6000604082019050610b5a60008301856109a6565b610b676020830184610b06565b9392505050565b6000606082019050610b8360008301866109a6565b610b906020830185610b06565b610b9d6040830184610b06565b949350505050565b60006020820190508181036000830152610bbf81846109b5565b905092915050565b60006020820190508181036000830152610be0816109ee565b9050919050565b60006020820190508181036000830152610c0081610a11565b9050919050565b60006020820190508181036000830152610c2081610a34565b9050919050565b60006020820190508181036000830152610c4081610a57565b9050919050565b60006020820190508181036000830152610c6081610a7a565b9050919050565b60006020820190508181036000830152610c8081610ac0565b9050919050565b60006020820190508181036000830152610ca081610ae3565b9050919050565b6000602082019050610cbc6000830184610b06565b92915050565b600081519050919050565b600081905092915050565b600082825260208201905092915050565b6000610cf482610d81565b9150610cff83610d81565b9250817fffffffffffffffffffffffffffffffffffffffffffffffffffffffffffffffff0483118215151615610d3857610d37610dbe565b5b828202905092915050565b6000610d4e82610d61565b9050919050565b60008115159050919050565b600073ffffffffffffffffffffffffffffffffffffffff82169050919050565b6000819050919050565b60005b83811015610da9578082015181840152602081019050610d8e565b83811115610db8576000848401525b50505050565b7f4e487b7100000000000000000000000000000000000000000000000000000000600052601160045260246000fd5b6000601f19601f8301169050919050565b7f4f776e61626c653a206e6577206f776e657220697320746865207a65726f206160008201527f6464726573730000000000000000000000000000000000000000000000000000602082015250565b7f53656e642045544820746f2062757920736f6d6520746f6b656e730000000000600082015250565b7f56656e646f7220636f6e747261637420686173206e6f7420656e6f756768207460008201527f6f6b656e7320696e206974732062616c616e6365000000000000000000000000602082015250565b7f4f776e61626c653a2063616c6c6572206973206e6f7420746865206f776e6572600082015250565b7f4661696c656420746f2073656e6420757365722062616c616e6365206261636b60008201527f20746f20746865206f776e657200000000000000000000000000000000000000602082015250565b50565b7f4f776e657220686173206e6f742062616c616e636520746f207769746864726160008201527f7700000000000000000000000000000000000000000000000000000000000000602082015250565b7f4661696c656420746f207472616e7366657220746f6b656e20746f2075736572600082015250565b610fc181610d43565b8114610fcc57600080fd5b50565b610fd881610d55565b8114610fe357600080fd5b50565b610fef81610d81565b8114610ffa57600080fd5b5056fea2646970667358221220427af40a657ca028106849c96e12412389e0cf658c51aa728e1ba94bbefb602764736f6c63430008040033",
  "devdoc": {
    "kind": "dev",
    "methods": {
      "owner()": {
        "details": "Returns the address of the current owner."
      },
      "renounceOwnership()": {
        "details": "Leaves the contract without owner. It will not be possible to call `onlyOwner` functions anymore. Can only be called by the current owner. NOTE: Renouncing ownership will leave the contract without an owner, thereby removing any functionality that is only available to the owner."
      },
      "transferOwnership(address)": {
        "details": "Transfers ownership of the contract to a new account (`newOwner`). Can only be called by the current owner."
      }
    },
    "version": 1
  },
  "userdoc": {
    "kind": "user",
    "methods": {
      "buy()": {
        "notice": "Allow users to buy token for ETH"
      },
      "withdraw()": {
        "notice": "Allow the owner of the contract to withdraw ETH"
      }
    },
    "version": 1
  },
  "storageLayout": {
    "storage": [
      {
        "astId": 7,
        "contract": "src/Vendor.sol:Vendor",
        "label": "_owner",
        "offset": 0,
        "slot": "0",
        "type": "t_address"
      },
      {
        "astId": 8286,
        "contract": "src/Vendor.sol:Vendor",
        "label": "token",
        "offset": 0,
        "slot": "1",
        "type": "t_contract(IERC20)190"
      },
      {
        "astId": 8289,
        "contract": "src/Vendor.sol:Vendor",
        "label": "tokensPerEth",
        "offset": 0,
        "slot": "2",
        "type": "t_uint256"
      }
    ],
    "types": {
      "t_address": {
        "encoding": "inplace",
        "label": "address",
        "numberOfBytes": "20"
      },
      "t_contract(IERC20)190": {
        "encoding": "inplace",
        "label": "contract IERC20",
        "numberOfBytes": "20"
      },
      "t_uint256": {
        "encoding": "inplace",
        "label": "uint256",
        "numberOfBytes": "32"
      }
    }
  }
}