{
  "address": "0xA56E0DE18617C8dee8ffc0137f2c5B568150B5A7",
  "abi": [
    {
      "inputs": [
        {
          "internalType": "address",
          "name": "bridgeAddress",
          "type": "address"
        },
        {
          "internalType": "address",
          "name": "vendorAddress",
          "type": "address"
        }
      ],
      "stateMutability": "nonpayable",
      "type": "constructor"
    },
    {
      "inputs": [],
      "name": "_bridgeAddress",
      "outputs": [
        {
          "internalType": "address",
          "name": "",
          "type": "address"
        }
      ],
      "stateMutability": "view",
      "type": "function"
    },
    {
      "inputs": [
        {
          "internalType": "address",
          "name": "",
          "type": "address"
        }
      ],
      "name": "_burnList",
      "outputs": [
        {
          "internalType": "bool",
          "name": "",
          "type": "bool"
        }
      ],
      "stateMutability": "view",
      "type": "function"
    },
    {
      "inputs": [
        {
          "internalType": "address",
          "name": "",
          "type": "address"
        }
      ],
      "name": "_contractWhitelist",
      "outputs": [
        {
          "internalType": "bool",
          "name": "",
          "type": "bool"
        }
      ],
      "stateMutability": "view",
      "type": "function"
    },
    {
      "inputs": [
        {
          "internalType": "bytes32",
          "name": "",
          "type": "bytes32"
        }
      ],
      "name": "_resourceIDToTokenContractAddress",
      "outputs": [
        {
          "internalType": "address",
          "name": "",
          "type": "address"
        }
      ],
      "stateMutability": "view",
      "type": "function"
    },
    {
      "inputs": [
        {
          "internalType": "address",
          "name": "",
          "type": "address"
        }
      ],
      "name": "_tokenContractAddressToResourceID",
      "outputs": [
        {
          "internalType": "bytes32",
          "name": "",
          "type": "bytes32"
        }
      ],
      "stateMutability": "view",
      "type": "function"
    },
    {
      "inputs": [
        {
          "internalType": "bytes32",
          "name": "resourceID",
          "type": "bytes32"
        },
        {
          "internalType": "address",
          "name": "depositer",
          "type": "address"
        },
        {
          "internalType": "bytes",
          "name": "data",
          "type": "bytes"
        }
      ],
      "name": "deposit",
      "outputs": [
        {
          "internalType": "bytes",
          "name": "",
          "type": "bytes"
        }
      ],
      "stateMutability": "nonpayable",
      "type": "function"
    },
    {
      "inputs": [
        {
          "internalType": "bytes32",
          "name": "resourceID",
          "type": "bytes32"
        },
        {
          "internalType": "bytes",
          "name": "data",
          "type": "bytes"
        }
      ],
      "name": "executeProposal",
      "outputs": [],
      "stateMutability": "nonpayable",
      "type": "function"
    },
    {
      "inputs": [
        {
          "internalType": "address",
          "name": "contractAddress",
          "type": "address"
        }
      ],
      "name": "setBurnable",
      "outputs": [],
      "stateMutability": "nonpayable",
      "type": "function"
    },
    {
      "inputs": [
        {
          "internalType": "bytes32",
          "name": "resourceID",
          "type": "bytes32"
        },
        {
          "internalType": "address",
          "name": "contractAddress",
          "type": "address"
        }
      ],
      "name": "setResource",
      "outputs": [],
      "stateMutability": "nonpayable",
      "type": "function"
    },
    {
      "inputs": [
        {
          "internalType": "bytes",
          "name": "data",
          "type": "bytes"
        }
      ],
      "name": "withdraw",
      "outputs": [],
      "stateMutability": "nonpayable",
      "type": "function"
    }
  ],
  "transactionHash": "0xb556967a979019ea76cba59f95113708efa23566fb7947ed8894705b2a882468",
  "args": [
    "0xCEE4a38919e4BB66a7B4aBd834fd2D79563aA013",
    "0xf054Be6AC90377Fa13d80e4a7528425945d13F8E"
  ],
  "numDeployments": 3,
  "solcInputHash": "ce6d517318d2ae98a8bb28de60f216d7",
  "bytecode": "0x60a06040523480156200001157600080fd5b506040516200197938038062001979833981810160405281019062000037919062000133565b818073ffffffffffffffffffffffffffffffffffffffff1660808173ffffffffffffffffffffffffffffffffffffffff1660601b815250505080600560006101000a81548173ffffffffffffffffffffffffffffffffffffffff021916908373ffffffffffffffffffffffffffffffffffffffff160217905550600560009054906101000a900473ffffffffffffffffffffffffffffffffffffffff16600460006101000a81548173ffffffffffffffffffffffffffffffffffffffff021916908373ffffffffffffffffffffffffffffffffffffffff1602179055505050620001c2565b6000815190506200012d81620001a8565b92915050565b600080604083850312156200014757600080fd5b600062000157858286016200011c565b92505060206200016a858286016200011c565b9150509250929050565b6000620001818262000188565b9050919050565b600073ffffffffffffffffffffffffffffffffffffffff82169050919050565b620001b38162000174565b8114620001bf57600080fd5b50565b60805160601c611791620001e8600039600081816102a8015261071501526117916000f3fe608060405234801561001057600080fd5b506004361061009e5760003560e01c80637f79bea8116100665780637f79bea814610159578063b07e54bb14610189578063b8fa3736146101b9578063c8ba6c87146101d5578063e248cff2146102055761009e565b806307b7ed99146100a35780630968f264146100bf5780630a6d55d8146100db578063318c136e1461010b5780636a70d08114610129575b600080fd5b6100bd60048036038101906100b89190610deb565b610221565b005b6100d960048036038101906100d49190610fb5565b610235565b005b6100f560048036038101906100f09190610e8c565b610273565b60405161010291906111d6565b60405180910390f35b6101136102a6565b60405161012091906111d6565b60405180910390f35b610143600480360381019061013e9190610deb565b6102ca565b6040516101509190611251565b60405180910390f35b610173600480360381019061016e9190610deb565b6102ea565b6040516101809190611251565b60405180910390f35b6101a3600480360381019061019e9190610ef1565b61030a565b6040516101b09190611287565b60405180910390f35b6101d360048036038101906101ce9190610eb5565b610463565b005b6101ef60048036038101906101ea9190610deb565b610479565b6040516101fc919061126c565b60405180910390f35b61021f600480360381019061021a9190610f5d565b610491565b005b610229610713565b610232816107a3565b50565b61023d610713565b6000806000838060200190518101906102569190610e14565b80935081945082955050505061026d83838361088a565b50505050565b60006020528060005260406000206000915054906101000a900473ffffffffffffffffffffffffffffffffffffffff1681565b7f000000000000000000000000000000000000000000000000000000000000000081565b60036020528060005260406000206000915054906101000a900460ff1681565b60026020528060005260406000206000915054906101000a900460ff1681565b6060610314610713565b600083838101906103259190610ff6565b9050600080600088815260200190815260200160002060009054906101000a900473ffffffffffffffffffffffffffffffffffffffff169050600260008273ffffffffffffffffffffffffffffffffffffffff1673ffffffffffffffffffffffffffffffffffffffff16815260200190815260200160002060009054906101000a900460ff166103ea576040517f08c379a00000000000000000000000000000000000000000000000000000000081526004016103e190611329565b60405180910390fd5b600360008273ffffffffffffffffffffffffffffffffffffffff1673ffffffffffffffffffffffffffffffffffffffff16815260200190815260200160002060009054906101000a900460ff161561044c576104478187846108a0565b610459565b61045881873085610918565b5b5050949350505050565b61046b610713565b6104758282610930565b5050565b60016020528060005260406000206000915090505481565b610499610713565b600080606084848101906104ad919061101f565b809350819450505084846040908460406104c79190611433565b926104d493929190611400565b8080601f016020809104026020016040519081016040528093929190818152602001838380828437600081840152601f19601f82011690508083019250505050505050905060008060008089815260200190815260200160002060009054906101000a900473ffffffffffffffffffffffffffffffffffffffff16905060208301519150600260008273ffffffffffffffffffffffffffffffffffffffff1673ffffffffffffffffffffffffffffffffffffffff16815260200190815260200160002060009054906101000a900460ff166105e4576040517f08c379a00000000000000000000000000000000000000000000000000000000081526004016105db90611329565b60405180910390fd5b600360008273ffffffffffffffffffffffffffffffffffffffff1673ffffffffffffffffffffffffffffffffffffffff16815260200190815260200160002060009054906101000a900460ff16156106fa5761066381600560009054906101000a900473ffffffffffffffffffffffffffffffffffffffff1687610a21565b600460009054906101000a900473ffffffffffffffffffffffffffffffffffffffff1673ffffffffffffffffffffffffffffffffffffffff16637bde82f2868460601c6040518363ffffffff1660e01b81526004016106c3929190611349565b600060405180830381600087803b1580156106dd57600080fd5b505af11580156106f1573d6000803e3d6000fd5b50505050610709565b610708818360601c8761088a565b5b5050505050505050565b7f000000000000000000000000000000000000000000000000000000000000000073ffffffffffffffffffffffffffffffffffffffff163373ffffffffffffffffffffffffffffffffffffffff16146107a1576040517f08c379a0000000000000000000000000000000000000000000000000000000008152600401610798906112c9565b60405180910390fd5b565b600260008273ffffffffffffffffffffffffffffffffffffffff1673ffffffffffffffffffffffffffffffffffffffff16815260200190815260200160002060009054906101000a900460ff1661082f576040517f08c379a0000000000000000000000000000000000000000000000000000000008152600401610826906112e9565b60405180910390fd5b6001600360008373ffffffffffffffffffffffffffffffffffffffff1673ffffffffffffffffffffffffffffffffffffffff16815260200190815260200160002060006101000a81548160ff02191690831515021790555050565b600083905061089a818484610a99565b50505050565b60008390508073ffffffffffffffffffffffffffffffffffffffff166379cc679084846040518363ffffffff1660e01b81526004016108e0929190611228565b600060405180830381600087803b1580156108fa57600080fd5b505af115801561090e573d6000803e3d6000fd5b5050505050505050565b600084905061092981858585610b1f565b5050505050565b8060008084815260200190815260200160002060006101000a81548173ffffffffffffffffffffffffffffffffffffffff021916908373ffffffffffffffffffffffffffffffffffffffff16021790555081600160008373ffffffffffffffffffffffffffffffffffffffff1673ffffffffffffffffffffffffffffffffffffffff168152602001908152602001600020819055506001600260008373ffffffffffffffffffffffffffffffffffffffff1673ffffffffffffffffffffffffffffffffffffffff16815260200190815260200160002060006101000a81548160ff0219169083151502179055505050565b60008390508073ffffffffffffffffffffffffffffffffffffffff166340c10f1984846040518363ffffffff1660e01b8152600401610a61929190611228565b600060405180830381600087803b158015610a7b57600080fd5b505af1158015610a8f573d6000803e3d6000fd5b5050505050505050565b610b1a8363a9059cbb60e01b8484604051602401610ab8929190611228565b604051602081830303815290604052907bffffffffffffffffffffffffffffffffffffffffffffffffffffffff19166020820180517bffffffffffffffffffffffffffffffffffffffffffffffffffffffff8381831617835250505050610ba8565b505050565b610ba2846323b872dd60e01b858585604051602401610b40939291906111f1565b604051602081830303815290604052907bffffffffffffffffffffffffffffffffffffffffffffffffffffffff19166020820180517bffffffffffffffffffffffffffffffffffffffffffffffffffffffff8381831617835250505050610ba8565b50505050565b6000808373ffffffffffffffffffffffffffffffffffffffff1683604051610bd091906111bf565b6000604051808303816000865af19150503d8060008114610c0d576040519150601f19603f3d011682016040523d82523d6000602084013e610c12565b606091505b509150915081610c57576040517f08c379a0000000000000000000000000000000000000000000000000000000008152600401610c4e90611309565b60405180910390fd5b600081511115610cb55780806020019051810190610c759190610e63565b610cb4576040517f08c379a0000000000000000000000000000000000000000000000000000000008152600401610cab906112a9565b60405180910390fd5b5b50505050565b6000610cce610cc984611397565b611372565b905082815260208101848484011115610ce657600080fd5b610cf18482856114ed565b509392505050565b600081359050610d08816116e8565b92915050565b600081519050610d1d816116ff565b92915050565b600081519050610d3281611716565b92915050565b600081359050610d478161172d565b92915050565b60008083601f840112610d5f57600080fd5b8235905067ffffffffffffffff811115610d7857600080fd5b602083019150836001820283011115610d9057600080fd5b9250929050565b600082601f830112610da857600080fd5b8135610db8848260208601610cbb565b91505092915050565b600081359050610dd081611744565b92915050565b600081519050610de581611744565b92915050565b600060208284031215610dfd57600080fd5b6000610e0b84828501610cf9565b91505092915050565b600080600060608486031215610e2957600080fd5b6000610e3786828701610d0e565b9350506020610e4886828701610d0e565b9250506040610e5986828701610dd6565b9150509250925092565b600060208284031215610e7557600080fd5b6000610e8384828501610d23565b91505092915050565b600060208284031215610e9e57600080fd5b6000610eac84828501610d38565b91505092915050565b60008060408385031215610ec857600080fd5b6000610ed685828601610d38565b9250506020610ee785828601610cf9565b9150509250929050565b60008060008060608587031215610f0757600080fd5b6000610f1587828801610d38565b9450506020610f2687828801610cf9565b935050604085013567ffffffffffffffff811115610f4357600080fd5b610f4f87828801610d4d565b925092505092959194509250565b600080600060408486031215610f7257600080fd5b6000610f8086828701610d38565b935050602084013567ffffffffffffffff811115610f9d57600080fd5b610fa986828701610d4d565b92509250509250925092565b600060208284031215610fc757600080fd5b600082013567ffffffffffffffff811115610fe157600080fd5b610fed84828501610d97565b91505092915050565b60006020828403121561100857600080fd5b600061101684828501610dc1565b91505092915050565b6000806040838503121561103257600080fd5b600061104085828601610dc1565b925050602061105185828601610dc1565b9150509250929050565b6110648161149b565b82525050565b61107381611489565b82525050565b611082816114ad565b82525050565b611091816114b9565b82525050565b60006110a2826113c8565b6110ac81856113d3565b93506110bc8185602086016114fc565b6110c5816115be565b840191505092915050565b60006110db826113c8565b6110e581856113e4565b93506110f58185602086016114fc565b80840191505092915050565b600061110e6020836113ef565b9150611119826115cf565b602082019050919050565b6000611131601e836113ef565b915061113c826115f8565b602082019050919050565b60006111546024836113ef565b915061115f82611621565b604082019050919050565b60006111776012836113ef565b915061118282611670565b602082019050919050565b600061119a6028836113ef565b91506111a582611699565b604082019050919050565b6111b9816114e3565b82525050565b60006111cb82846110d0565b915081905092915050565b60006020820190506111eb600083018461106a565b92915050565b6000606082019050611206600083018661106a565b611213602083018561106a565b61122060408301846111b0565b949350505050565b600060408201905061123d600083018561106a565b61124a60208301846111b0565b9392505050565b60006020820190506112666000830184611079565b92915050565b60006020820190506112816000830184611088565b92915050565b600060208201905081810360008301526112a18184611097565b905092915050565b600060208201905081810360008301526112c281611101565b9050919050565b600060208201905081810360008301526112e281611124565b9050919050565b6000602082019050818103600083015261130281611147565b9050919050565b600060208201905081810360008301526113228161116a565b9050919050565b600060208201905081810360008301526113428161118d565b9050919050565b600060408201905061135e60008301856111b0565b61136b602083018461105b565b9392505050565b600061137c61138d565b9050611388828261152f565b919050565b6000604051905090565b600067ffffffffffffffff8211156113b2576113b161158f565b5b6113bb826115be565b9050602081019050919050565b600081519050919050565b600082825260208201905092915050565b600081905092915050565b600082825260208201905092915050565b6000808585111561141057600080fd5b8386111561141d57600080fd5b6001850283019150848603905094509492505050565b600061143e826114e3565b9150611449836114e3565b9250827fffffffffffffffffffffffffffffffffffffffffffffffffffffffffffffffff0382111561147e5761147d611560565b5b828201905092915050565b6000611494826114c3565b9050919050565b60006114a6826114c3565b9050919050565b60008115159050919050565b6000819050919050565b600073ffffffffffffffffffffffffffffffffffffffff82169050919050565b6000819050919050565b82818337600083830152505050565b60005b8381101561151a5780820151818401526020810190506114ff565b83811115611529576000848401525b50505050565b611538826115be565b810181811067ffffffffffffffff821117156115575761155661158f565b5b80604052505050565b7f4e487b7100000000000000000000000000000000000000000000000000000000600052601160045260246000fd5b7f4e487b7100000000000000000000000000000000000000000000000000000000600052604160045260246000fd5b6000601f19601f8301169050919050565b7f45524332303a206f7065726174696f6e20646964206e6f742073756363656564600082015250565b7f73656e646572206d7573742062652062726964676520636f6e74726163740000600082015250565b7f70726f766964656420636f6e7472616374206973206e6f742077686974656c6960008201527f7374656400000000000000000000000000000000000000000000000000000000602082015250565b7f45524332303a2063616c6c206661696c65640000000000000000000000000000600082015250565b7f70726f766964656420746f6b656e41646472657373206973206e6f742077686960008201527f74656c6973746564000000000000000000000000000000000000000000000000602082015250565b6116f181611489565b81146116fc57600080fd5b50565b6117088161149b565b811461171357600080fd5b50565b61171f816114ad565b811461172a57600080fd5b50565b611736816114b9565b811461174157600080fd5b50565b61174d816114e3565b811461175857600080fd5b5056fea2646970667358221220f1d7ad3ef483882cc83bd8dc35e5c0ad166fc63bbd910365f485f3b56100a6b964736f6c63430008040033",
  "devdoc": {
    "author": "ChainSafe Systems.",
    "kind": "dev",
    "methods": {
      "constructor": {
        "params": {
          "bridgeAddress": "Contract address of previously deployed Bridge."
        }
      },
      "deposit(bytes32,address,bytes)": {
        "details": "Depending if the corresponding {tokenAddress} for the parsed {resourceID} is marked true in {_burnList}, deposited tokens will be burned, if not, they will be locked.",
        "params": {
          "data": "Consists of {amount} padded to 32 bytes.",
          "depositer": "Address of account making the deposit in the Bridge contract.",
          "resourceID": "ResourceID used to find address of token to be used for deposit."
        },
        "returns": {
          "_0": "an empty data."
        }
      },
      "executeProposal(bytes32,bytes)": {
        "params": {
          "data": "Consists of {resourceID}, {amount}, {lenDestinationRecipientAddress}, and {destinationRecipientAddress} all padded to 32 bytes."
        }
      },
      "setBurnable(address)": {
        "params": {
          "contractAddress": "Address of contract to be used when making or executing deposits."
        }
      },
      "setResource(bytes32,address)": {
        "params": {
          "contractAddress": "Address of contract to be called when a deposit is made and a deposited is executed.",
          "resourceID": "ResourceID to be used when making deposits."
        }
      },
      "withdraw(bytes)": {
        "params": {
          "data": "Consists of {tokenAddress}, {recipient}, and {amount} all padded to 32 bytes."
        }
      }
    },
    "title": "Handles ERC20 deposits and deposit executions.",
    "version": 1
  },
  "userdoc": {
    "kind": "user",
    "methods": {
      "deposit(bytes32,address,bytes)": {
        "notice": "A deposit is initiatied by making a deposit in the Bridge contract.Data passed into the function should be constructed as follows: amount                      uint256     bytes   0 - 32"
      },
      "executeProposal(bytes32,bytes)": {
        "notice": "Proposal execution should be initiated when a proposal is finalized in the Bridge contract. by a relayer on the deposit's destination chain.Data passed into the function should be constructed as follows: amount                                 uint256     bytes  0 - 32 destinationRecipientAddress length     uint256     bytes  32 - 64 destinationRecipientAddress            bytes       bytes  64 - END"
      },
      "setBurnable(address)": {
        "notice": "First verifies {contractAddress} is whitelisted, then sets {_burnList}[{contractAddress}] to true."
      },
      "setResource(bytes32,address)": {
        "notice": "First verifies {_resourceIDToContractAddress}[{resourceID}] and {_contractAddressToResourceID}[{contractAddress}] are not already set, then sets {_resourceIDToContractAddress} with {contractAddress}, {_contractAddressToResourceID} with {resourceID}, and {_contractWhitelist} to true for {contractAddress}."
      },
      "withdraw(bytes)": {
        "notice": "Used to manually release ERC20 tokens from ERC20Safe.Data passed into the function should be constructed as follows: tokenAddress                           address     bytes  0 - 32 recipient                              address     bytes  32 - 64 amount                                 uint        bytes  64 - 96"
      }
    },
    "notice": "This contract is intended to be used with the Bridge contract.",
    "version": 1
  },
  "storageLayout": {
    "storage": [
      {
        "astId": 11394,
        "contract": "src/ERC20Handler.sol:ERC20Handler",
        "label": "_resourceIDToTokenContractAddress",
        "offset": 0,
        "slot": "0",
        "type": "t_mapping(t_bytes32,t_address)"
      },
      {
        "astId": 11398,
        "contract": "src/ERC20Handler.sol:ERC20Handler",
        "label": "_tokenContractAddressToResourceID",
        "offset": 0,
        "slot": "1",
        "type": "t_mapping(t_address,t_bytes32)"
      },
      {
        "astId": 11402,
        "contract": "src/ERC20Handler.sol:ERC20Handler",
        "label": "_contractWhitelist",
        "offset": 0,
        "slot": "2",
        "type": "t_mapping(t_address,t_bool)"
      },
      {
        "astId": 11406,
        "contract": "src/ERC20Handler.sol:ERC20Handler",
        "label": "_burnList",
        "offset": 0,
        "slot": "3",
        "type": "t_mapping(t_address,t_bool)"
      },
      {
        "astId": 10945,
        "contract": "src/ERC20Handler.sol:ERC20Handler",
        "label": "_vendorContract",
        "offset": 0,
        "slot": "4",
        "type": "t_contract(Vendor)11851"
      },
      {
        "astId": 10947,
        "contract": "src/ERC20Handler.sol:ERC20Handler",
        "label": "_vendorAddress",
        "offset": 0,
        "slot": "5",
        "type": "t_address"
      }
    ],
    "types": {
      "t_address": {
        "encoding": "inplace",
        "label": "address",
        "numberOfBytes": "20"
      },
      "t_bool": {
        "encoding": "inplace",
        "label": "bool",
        "numberOfBytes": "1"
      },
      "t_bytes32": {
        "encoding": "inplace",
        "label": "bytes32",
        "numberOfBytes": "32"
      },
      "t_contract(Vendor)11851": {
        "encoding": "inplace",
        "label": "contract Vendor",
        "numberOfBytes": "20"
      },
      "t_mapping(t_address,t_bool)": {
        "encoding": "mapping",
        "key": "t_address",
        "label": "mapping(address => bool)",
        "numberOfBytes": "32",
        "value": "t_bool"
      },
      "t_mapping(t_address,t_bytes32)": {
        "encoding": "mapping",
        "key": "t_address",
        "label": "mapping(address => bytes32)",
        "numberOfBytes": "32",
        "value": "t_bytes32"
      },
      "t_mapping(t_bytes32,t_address)": {
        "encoding": "mapping",
        "key": "t_bytes32",
        "label": "mapping(bytes32 => address)",
        "numberOfBytes": "32",
        "value": "t_address"
      }
    }
  }
}