{
  "address": "0xf054Be6AC90377Fa13d80e4a7528425945d13F8E",
  "abi": [
    {
      "inputs": [
        {
          "internalType": "address",
          "name": "bridge",
          "type": "address"
        },
        {
          "internalType": "address",
          "name": "tokenAddress",
          "type": "address"
        },
        {
          "internalType": "bytes32",
          "name": "resourceID",
          "type": "bytes32"
        }
      ],
      "stateMutability": "nonpayable",
      "type": "constructor"
    },
    {
      "anonymous": false,
      "inputs": [
        {
          "indexed": false,
          "internalType": "address",
          "name": "buyer",
          "type": "address"
        },
        {
          "indexed": false,
          "internalType": "uint256",
          "name": "amountOfETH",
          "type": "uint256"
        },
        {
          "indexed": false,
          "internalType": "uint256",
          "name": "amountOfTokens",
          "type": "uint256"
        }
      ],
      "name": "BuyTokens",
      "type": "event"
    },
    {
      "anonymous": false,
      "inputs": [
        {
          "indexed": false,
          "internalType": "bytes",
          "name": "data",
          "type": "bytes"
        }
      ],
      "name": "CallData",
      "type": "event"
    },
    {
      "anonymous": false,
      "inputs": [
        {
          "indexed": true,
          "internalType": "address",
          "name": "previousOwner",
          "type": "address"
        },
        {
          "indexed": true,
          "internalType": "address",
          "name": "newOwner",
          "type": "address"
        }
      ],
      "name": "OwnershipTransferred",
      "type": "event"
    },
    {
      "inputs": [
        {
          "internalType": "bytes32",
          "name": "to",
          "type": "bytes32"
        }
      ],
      "name": "deposit",
      "outputs": [],
      "stateMutability": "payable",
      "type": "function"
    },
    {
      "inputs": [],
      "name": "destinationChainID",
      "outputs": [
        {
          "internalType": "uint8",
          "name": "",
          "type": "uint8"
        }
      ],
      "stateMutability": "view",
      "type": "function"
    },
    {
      "inputs": [],
      "name": "handlerAddress",
      "outputs": [
        {
          "internalType": "address",
          "name": "",
          "type": "address"
        }
      ],
      "stateMutability": "view",
      "type": "function"
    },
    {
      "inputs": [],
      "name": "owner",
      "outputs": [
        {
          "internalType": "address",
          "name": "",
          "type": "address"
        }
      ],
      "stateMutability": "view",
      "type": "function"
    },
    {
      "inputs": [
        {
          "internalType": "uint256",
          "name": "amount",
          "type": "uint256"
        },
        {
          "internalType": "address payable",
          "name": "to",
          "type": "address"
        }
      ],
      "name": "redeem",
      "outputs": [],
      "stateMutability": "nonpayable",
      "type": "function"
    },
    {
      "inputs": [],
      "name": "renounceOwnership",
      "outputs": [],
      "stateMutability": "nonpayable",
      "type": "function"
    },
    {
      "inputs": [
        {
          "internalType": "address",
          "name": "handler",
          "type": "address"
        }
      ],
      "name": "setHandler",
      "outputs": [],
      "stateMutability": "nonpayable",
      "type": "function"
    },
    {
      "inputs": [],
      "name": "substrateAddressLen",
      "outputs": [
        {
          "internalType": "uint256",
          "name": "",
          "type": "uint256"
        }
      ],
      "stateMutability": "view",
      "type": "function"
    },
    {
      "inputs": [],
      "name": "tokensPerEth",
      "outputs": [
        {
          "internalType": "uint256",
          "name": "",
          "type": "uint256"
        }
      ],
      "stateMutability": "view",
      "type": "function"
    },
    {
      "inputs": [
        {
          "internalType": "address",
          "name": "newOwner",
          "type": "address"
        }
      ],
      "name": "transferOwnership",
      "outputs": [],
      "stateMutability": "nonpayable",
      "type": "function"
    },
    {
      "inputs": [],
      "name": "withdraw",
      "outputs": [],
      "stateMutability": "nonpayable",
      "type": "function"
    }
  ],
  "transactionHash": "0x201f39cf88a46f5354f75ffe972d881000e7dce5dd24b62ea8a076c9abfbcb08",
  "args": [
    "0xCEE4a38919e4BB66a7B4aBd834fd2D79563aA013",
    "0xb7D43b3c22389889A964f89F141b12D5fb1CA804",
    "0x00000000000000000000000000000063822bbd62abfb4ab9c92210c193e71b01"
  ],
  "numDeployments": 10,
  "solcInputHash": "ce6d517318d2ae98a8bb28de60f216d7",
  "bytecode": "0x6080604052600160055560016006553480156200001b57600080fd5b50604051620018b8380380620018b88339818101604052810190620000419190620001ed565b6200006162000055620000f360201b60201c565b620000fb60201b60201c565b82600160006101000a81548173ffffffffffffffffffffffffffffffffffffffff021916908373ffffffffffffffffffffffffffffffffffffffff16021790555081600260006101000a81548173ffffffffffffffffffffffffffffffffffffffff021916908373ffffffffffffffffffffffffffffffffffffffff16021790555080600481905550505050620002b5565b600033905090565b60008060009054906101000a900473ffffffffffffffffffffffffffffffffffffffff169050816000806101000a81548173ffffffffffffffffffffffffffffffffffffffff021916908373ffffffffffffffffffffffffffffffffffffffff1602179055508173ffffffffffffffffffffffffffffffffffffffff168173ffffffffffffffffffffffffffffffffffffffff167f8be0079c531659141344cd1fd0a4f28419497f9722a3daafe3b4186f6b6457e060405160405180910390a35050565b600081519050620001d08162000281565b92915050565b600081519050620001e7816200029b565b92915050565b6000806000606084860312156200020357600080fd5b60006200021386828701620001bf565b93505060206200022686828701620001bf565b92505060406200023986828701620001d6565b9150509250925092565b6000620002508262000261565b9050919050565b6000819050919050565b600073ffffffffffffffffffffffffffffffffffffffff82169050919050565b6200028c8162000243565b81146200029857600080fd5b50565b620002a68162000257565b8114620002b257600080fd5b50565b6115f380620002c56000396000f3fe60806040526004361061009c5760003560e01c80638b4bf33e116100645780638b4bf33e1461014e5780638da5cb5b14610179578063b214faa5146101a4578063bac426d0146101c0578063cbdd69b5146101e9578063f2fde38b146102145761009c565b80633ccfd60b146100a15780636fd7d970146100b8578063715018a6146100e35780637a9cffc8146100fa5780637bde82f214610125575b600080fd5b3480156100ad57600080fd5b506100b661023d565b005b3480156100c457600080fd5b506100cd61033d565b6040516100da9190610f44565b60405180910390f35b3480156100ef57600080fd5b506100f8610367565b005b34801561010657600080fd5b5061010f61037b565b60405161011c919061113c565b60405180910390f35b34801561013157600080fd5b5061014c60048036038101906101479190610ca9565b610380565b005b34801561015a57600080fd5b506101636103d3565b6040516101709190611121565b60405180910390f35b34801561018557600080fd5b5061018e6103d8565b60405161019b9190610f44565b60405180910390f35b6101be60048036038101906101b99190610c57565b610401565b005b3480156101cc57600080fd5b506101e760048036038101906101e29190610c05565b6108e9565b005b3480156101f557600080fd5b506101fe610935565b60405161020b9190611121565b60405180910390f35b34801561022057600080fd5b5061023b60048036038101906102369190610c05565b61093b565b005b6102456109bf565b60004790506000811161028d576040517f08c379a0000000000000000000000000000000000000000000000000000000008152600401610284906110e1565b60405180910390fd5b60003373ffffffffffffffffffffffffffffffffffffffff16476040516102b390610f2f565b60006040518083038185875af1925050503d80600081146102f0576040519150601f19603f3d011682016040523d82523d6000602084013e6102f5565b606091505b5050905080610339576040517f08c379a0000000000000000000000000000000000000000000000000000000008152600401610330906110c1565b60405180910390fd5b5050565b6000600360009054906101000a900473ffffffffffffffffffffffffffffffffffffffff16905090565b61036f6109bf565b6103796000610a3d565b565b600281565b610388610b01565b8073ffffffffffffffffffffffffffffffffffffffff166108fc839081150290604051600060405180830381858888f193505050501580156103ce573d6000803e3d6000fd5b505050565b602081565b60008060009054906101000a900473ffffffffffffffffffffffffffffffffffffffff16905090565b60003411610444576040517f08c379a000000000000000000000000000000000000000000000000000000000815260040161043b90611021565b60405180910390fd5b600073ffffffffffffffffffffffffffffffffffffffff1661046461033d565b73ffffffffffffffffffffffffffffffffffffffff1614156104bb576040517f08c379a00000000000000000000000000000000000000000000000000000000081526004016104b290610fe1565b60405180910390fd5b6000600554346104cb91906111cd565b90506000600260009054906101000a900473ffffffffffffffffffffffffffffffffffffffff1673ffffffffffffffffffffffffffffffffffffffff166370a08231306040518263ffffffff1660e01b815260040161052a9190610f44565b60206040518083038186803b15801561054257600080fd5b505afa158015610556573d6000803e3d6000fd5b505050506040513d601f19601f8201168201806040525081019061057a9190610c80565b9050818110156105bf576040517f08c379a00000000000000000000000000000000000000000000000000000000081526004016105b690611061565b60405180910390fd5b6000600260009054906101000a900473ffffffffffffffffffffffffffffffffffffffff1673ffffffffffffffffffffffffffffffffffffffff1663095ea7b361060761033d565b856040518363ffffffff1660e01b8152600401610625929190610f5f565b602060405180830381600087803b15801561063f57600080fd5b505af1158015610653573d6000803e3d6000fd5b505050506040513d601f19601f820116820180604052508101906106779190610c2e565b9050806106b9576040517f08c379a00000000000000000000000000000000000000000000000000000000081526004016106b090611081565b60405180910390fd5b60003460001b602060001b866040516020016106d793929190610ef2565b60405160208183030381529060405290507fff51a1a2d0efa2fe2ea6996033898ee0a37d3fb78830d63666998a73331cde81816040516107179190610fbf565b60405180910390a1600160009054906101000a900473ffffffffffffffffffffffffffffffffffffffff1673ffffffffffffffffffffffffffffffffffffffff166305e2ca176002600454846040518463ffffffff1660e01b815260040161078193929190611157565b600060405180830381600087803b15801561079b57600080fd5b505af11580156107af573d6000803e3d6000fd5b505050506000600260009054906101000a900473ffffffffffffffffffffffffffffffffffffffff1673ffffffffffffffffffffffffffffffffffffffff1663a9059cbb33876040518363ffffffff1660e01b8152600401610812929190610f5f565b602060405180830381600087803b15801561082c57600080fd5b505af1158015610840573d6000803e3d6000fd5b505050506040513d601f19601f820116820180604052508101906108649190610c2e565b9050806108a6576040517f08c379a000000000000000000000000000000000000000000000000000000000815260040161089d90611101565b60405180910390fd5b7f0a37b72bb67eee30e09084cf386f8a17817c57f620c3ab95fb25d6a20356ec773334876040516108d993929190610f88565b60405180910390a1505050505050565b6108f16109bf565b80600360006101000a81548173ffffffffffffffffffffffffffffffffffffffff021916908373ffffffffffffffffffffffffffffffffffffffff16021790555050565b60055481565b6109436109bf565b600073ffffffffffffffffffffffffffffffffffffffff168173ffffffffffffffffffffffffffffffffffffffff1614156109b3576040517f08c379a00000000000000000000000000000000000000000000000000000000081526004016109aa90611001565b60405180910390fd5b6109bc81610a3d565b50565b6109c7610b7f565b73ffffffffffffffffffffffffffffffffffffffff166109e56103d8565b73ffffffffffffffffffffffffffffffffffffffff1614610a3b576040517f08c379a0000000000000000000000000000000000000000000000000000000008152600401610a32906110a1565b60405180910390fd5b565b60008060009054906101000a900473ffffffffffffffffffffffffffffffffffffffff169050816000806101000a81548173ffffffffffffffffffffffffffffffffffffffff021916908373ffffffffffffffffffffffffffffffffffffffff1602179055508173ffffffffffffffffffffffffffffffffffffffff168173ffffffffffffffffffffffffffffffffffffffff167f8be0079c531659141344cd1fd0a4f28419497f9722a3daafe3b4186f6b6457e060405160405180910390a35050565b610b09610b7f565b73ffffffffffffffffffffffffffffffffffffffff16610b2761033d565b73ffffffffffffffffffffffffffffffffffffffff1614610b7d576040517f08c379a0000000000000000000000000000000000000000000000000000000008152600401610b7490611041565b60405180910390fd5b565b600033905090565b600081359050610b968161154a565b92915050565b600081359050610bab81611561565b92915050565b600081519050610bc081611578565b92915050565b600081359050610bd58161158f565b92915050565b600081359050610bea816115a6565b92915050565b600081519050610bff816115a6565b92915050565b600060208284031215610c1757600080fd5b6000610c2584828501610b87565b91505092915050565b600060208284031215610c4057600080fd5b6000610c4e84828501610bb1565b91505092915050565b600060208284031215610c6957600080fd5b6000610c7784828501610bc6565b91505092915050565b600060208284031215610c9257600080fd5b6000610ca084828501610bf0565b91505092915050565b60008060408385031215610cbc57600080fd5b6000610cca85828601610bdb565b9250506020610cdb85828601610b9c565b9150509250929050565b610cee81611227565b82525050565b610cfd81611257565b82525050565b610d14610d0f82611257565b6112cb565b82525050565b6000610d2582611195565b610d2f81856111a0565b9350610d3f818560208601611298565b610d4881611304565b840191505092915050565b6000610d60601a836111bc565b9150610d6b82611315565b602082019050919050565b6000610d836026836111bc565b9150610d8e8261133e565b604082019050919050565b6000610da6601b836111bc565b9150610db18261138d565b602082019050919050565b6000610dc96020836111bc565b9150610dd4826113b6565b602082019050919050565b6000610dec6034836111bc565b9150610df7826113df565b604082019050919050565b6000610e0f6020836111bc565b9150610e1a8261142e565b602082019050919050565b6000610e326020836111bc565b9150610e3d82611457565b602082019050919050565b6000610e55602d836111bc565b9150610e6082611480565b604082019050919050565b6000610e786000836111b1565b9150610e83826114cf565b600082019050919050565b6000610e9b6021836111bc565b9150610ea6826114d2565b604082019050919050565b6000610ebe6020836111bc565b9150610ec982611521565b602082019050919050565b610edd81611281565b82525050565b610eec8161128b565b82525050565b6000610efe8286610d03565b602082019150610f0e8285610d03565b602082019150610f1e8284610d03565b602082019150819050949350505050565b6000610f3a82610e6b565b9150819050919050565b6000602082019050610f596000830184610ce5565b92915050565b6000604082019050610f746000830185610ce5565b610f816020830184610ed4565b9392505050565b6000606082019050610f9d6000830186610ce5565b610faa6020830185610ed4565b610fb76040830184610ed4565b949350505050565b60006020820190508181036000830152610fd98184610d1a565b905092915050565b60006020820190508181036000830152610ffa81610d53565b9050919050565b6000602082019050818103600083015261101a81610d76565b9050919050565b6000602082019050818103600083015261103a81610d99565b9050919050565b6000602082019050818103600083015261105a81610dbc565b9050919050565b6000602082019050818103600083015261107a81610ddf565b9050919050565b6000602082019050818103600083015261109a81610e02565b9050919050565b600060208201905081810360008301526110ba81610e25565b9050919050565b600060208201905081810360008301526110da81610e48565b9050919050565b600060208201905081810360008301526110fa81610e8e565b9050919050565b6000602082019050818103600083015261111a81610eb1565b9050919050565b60006020820190506111366000830184610ed4565b92915050565b60006020820190506111516000830184610ee3565b92915050565b600060608201905061116c6000830186610ee3565b6111796020830185610cf4565b818103604083015261118b8184610d1a565b9050949350505050565b600081519050919050565b600082825260208201905092915050565b600081905092915050565b600082825260208201905092915050565b60006111d882611281565b91506111e383611281565b9250817fffffffffffffffffffffffffffffffffffffffffffffffffffffffffffffffff048311821515161561121c5761121b6112d5565b5b828202905092915050565b600061123282611261565b9050919050565b600061124482611261565b9050919050565b60008115159050919050565b6000819050919050565b600073ffffffffffffffffffffffffffffffffffffffff82169050919050565b6000819050919050565b600060ff82169050919050565b60005b838110156112b657808201518184015260208101905061129b565b838111156112c5576000848401525b50505050565b6000819050919050565b7f4e487b7100000000000000000000000000000000000000000000000000000000600052601160045260246000fd5b6000601f19601f8301169050919050565b7f48616e646c6572206973206e6f7420696e697469616c697a6564000000000000600082015250565b7f4f776e61626c653a206e6577206f776e657220697320746865207a65726f206160008201527f6464726573730000000000000000000000000000000000000000000000000000602082015250565b7f53656e642045544820746f2062757920736f6d6520746f6b656e730000000000600082015250565b7f4272696467653a2063616c6c6572206973206e6f742074686520627269646765600082015250565b7f56656e646f7220636f6e747261637420686173206e6f7420656e6f756768207460008201527f6f6b656e7320696e206974732062616c616e6365000000000000000000000000602082015250565b7f4661696c656420746f20617070726f766520746f6b656e207472616e73666572600082015250565b7f4f776e61626c653a2063616c6c6572206973206e6f7420746865206f776e6572600082015250565b7f4661696c656420746f2073656e6420757365722062616c616e6365206261636b60008201527f20746f20746865206f776e657200000000000000000000000000000000000000602082015250565b50565b7f4f776e657220686173206e6f742062616c616e636520746f207769746864726160008201527f7700000000000000000000000000000000000000000000000000000000000000602082015250565b7f4661696c656420746f207472616e7366657220746f6b656e20746f2075736572600082015250565b61155381611227565b811461155e57600080fd5b50565b61156a81611239565b811461157557600080fd5b50565b6115818161124b565b811461158c57600080fd5b50565b61159881611257565b81146115a357600080fd5b50565b6115af81611281565b81146115ba57600080fd5b5056fea264697066735822122074a7b29e1c19955f907aba454d7b34d60225c10eceb51a78440933930d5a9e8764736f6c63430008040033",
  "devdoc": {
    "kind": "dev",
    "methods": {
      "owner()": {
        "details": "Returns the address of the current owner."
      },
      "renounceOwnership()": {
        "details": "Leaves the contract without owner. It will not be possible to call `onlyOwner` functions anymore. Can only be called by the current owner. NOTE: Renouncing ownership will leave the contract without an owner, thereby removing any functionality that is only available to the owner."
      },
      "transferOwnership(address)": {
        "details": "Transfers ownership of the contract to a new account (`newOwner`). Can only be called by the current owner."
      }
    },
    "version": 1
  },
  "userdoc": {
    "kind": "user",
    "methods": {
      "deposit(bytes32)": {
        "notice": "Allow users to buy token for ETH"
      },
      "withdraw()": {
        "notice": "Allow the owner of the contract to withdraw ETH"
      }
    },
    "version": 1
  },
  "storageLayout": {
    "storage": [
      {
        "astId": 550,
        "contract": "src/Vendor.sol:Vendor",
        "label": "_owner",
        "offset": 0,
        "slot": "0",
        "type": "t_address"
      },
      {
        "astId": 11585,
        "contract": "src/Vendor.sol:Vendor",
        "label": "_bridge",
        "offset": 0,
        "slot": "1",
        "type": "t_contract(BRIDGE)12221"
      },
      {
        "astId": 11588,
        "contract": "src/Vendor.sol:Vendor",
        "label": "token",
        "offset": 0,
        "slot": "2",
        "type": "t_contract(IERC20)1427"
      },
      {
        "astId": 11590,
        "contract": "src/Vendor.sol:Vendor",
        "label": "_handler",
        "offset": 0,
        "slot": "3",
        "type": "t_address"
      },
      {
        "astId": 11592,
        "contract": "src/Vendor.sol:Vendor",
        "label": "_resourceID",
        "offset": 0,
        "slot": "4",
        "type": "t_bytes32"
      },
      {
        "astId": 11595,
        "contract": "src/Vendor.sol:Vendor",
        "label": "tokensPerEth",
        "offset": 0,
        "slot": "5",
        "type": "t_uint256"
      },
      {
        "astId": 11598,
        "contract": "src/Vendor.sol:Vendor",
        "label": "someVar",
        "offset": 0,
        "slot": "6",
        "type": "t_uint256"
      }
    ],
    "types": {
      "t_address": {
        "encoding": "inplace",
        "label": "address",
        "numberOfBytes": "20"
      },
      "t_bytes32": {
        "encoding": "inplace",
        "label": "bytes32",
        "numberOfBytes": "32"
      },
      "t_contract(BRIDGE)12221": {
        "encoding": "inplace",
        "label": "contract BRIDGE",
        "numberOfBytes": "20"
      },
      "t_contract(IERC20)1427": {
        "encoding": "inplace",
        "label": "contract IERC20",
        "numberOfBytes": "20"
      },
      "t_uint256": {
        "encoding": "inplace",
        "label": "uint256",
        "numberOfBytes": "32"
      }
    }
  }
}