{
  "_format": "hh-sol-artifact-1",
  "contractName": "Vendor",
  "sourceName": "src/Vendor.sol",
  "abi": [
    {
      "inputs": [
        {
          "internalType": "address",
          "name": "bridge",
          "type": "address"
        },
        {
          "internalType": "address",
          "name": "tokenAddress",
          "type": "address"
        },
        {
          "internalType": "bytes32",
          "name": "resourceID",
          "type": "bytes32"
        }
      ],
      "stateMutability": "nonpayable",
      "type": "constructor"
    },
    {
      "anonymous": false,
      "inputs": [
        {
          "indexed": false,
          "internalType": "address",
          "name": "buyer",
          "type": "address"
        },
        {
          "indexed": false,
          "internalType": "uint256",
          "name": "amountOfETH",
          "type": "uint256"
        },
        {
          "indexed": false,
          "internalType": "uint256",
          "name": "amountOfTokens",
          "type": "uint256"
        }
      ],
      "name": "BuyTokens",
      "type": "event"
    },
    {
      "anonymous": false,
      "inputs": [
        {
          "indexed": false,
          "internalType": "bytes",
          "name": "data",
          "type": "bytes"
        }
      ],
      "name": "CallData",
      "type": "event"
    },
    {
      "anonymous": false,
      "inputs": [
        {
          "indexed": true,
          "internalType": "address",
          "name": "previousOwner",
          "type": "address"
        },
        {
          "indexed": true,
          "internalType": "address",
          "name": "newOwner",
          "type": "address"
        }
      ],
      "name": "OwnershipTransferred",
      "type": "event"
    },
    {
      "inputs": [
        {
          "internalType": "bytes32",
          "name": "to",
          "type": "bytes32"
        }
      ],
      "name": "deposit",
      "outputs": [],
      "stateMutability": "payable",
      "type": "function"
    },
    {
      "inputs": [],
      "name": "destinationChainID",
      "outputs": [
        {
          "internalType": "uint8",
          "name": "",
          "type": "uint8"
        }
      ],
      "stateMutability": "view",
      "type": "function"
    },
    {
      "inputs": [],
      "name": "handlerAddress",
      "outputs": [
        {
          "internalType": "address",
          "name": "",
          "type": "address"
        }
      ],
      "stateMutability": "view",
      "type": "function"
    },
    {
      "inputs": [],
      "name": "owner",
      "outputs": [
        {
          "internalType": "address",
          "name": "",
          "type": "address"
        }
      ],
      "stateMutability": "view",
      "type": "function"
    },
    {
      "inputs": [
        {
          "internalType": "uint256",
          "name": "amount",
          "type": "uint256"
        },
        {
          "internalType": "address",
          "name": "to",
          "type": "address"
        }
      ],
      "name": "redeem",
      "outputs": [],
      "stateMutability": "view",
      "type": "function"
    },
    {
      "inputs": [],
      "name": "renounceOwnership",
      "outputs": [],
      "stateMutability": "nonpayable",
      "type": "function"
    },
    {
      "inputs": [
        {
          "internalType": "address",
          "name": "handlerAddress",
          "type": "address"
        }
      ],
      "name": "setHandler",
      "outputs": [],
      "stateMutability": "nonpayable",
      "type": "function"
    },
    {
      "inputs": [],
      "name": "substrateAddressLen",
      "outputs": [
        {
          "internalType": "uint256",
          "name": "",
          "type": "uint256"
        }
      ],
      "stateMutability": "view",
      "type": "function"
    },
    {
      "inputs": [],
      "name": "tokensPerEth",
      "outputs": [
        {
          "internalType": "uint256",
          "name": "",
          "type": "uint256"
        }
      ],
      "stateMutability": "view",
      "type": "function"
    },
    {
      "inputs": [
        {
          "internalType": "address",
          "name": "newOwner",
          "type": "address"
        }
      ],
      "name": "transferOwnership",
      "outputs": [],
      "stateMutability": "nonpayable",
      "type": "function"
    },
    {
      "inputs": [],
      "name": "withdraw",
      "outputs": [],
      "stateMutability": "nonpayable",
      "type": "function"
    }
  ],
  "bytecode": "0x608060405260016005553480156200001657600080fd5b50604051620018643803806200186483398181016040528101906200003c9190620001e8565b6200005c62000050620000ee60201b60201c565b620000f660201b60201c565b82600160006101000a81548173ffffffffffffffffffffffffffffffffffffffff021916908373ffffffffffffffffffffffffffffffffffffffff16021790555081600260006101000a81548173ffffffffffffffffffffffffffffffffffffffff021916908373ffffffffffffffffffffffffffffffffffffffff16021790555080600481905550505050620002b0565b600033905090565b60008060009054906101000a900473ffffffffffffffffffffffffffffffffffffffff169050816000806101000a81548173ffffffffffffffffffffffffffffffffffffffff021916908373ffffffffffffffffffffffffffffffffffffffff1602179055508173ffffffffffffffffffffffffffffffffffffffff168173ffffffffffffffffffffffffffffffffffffffff167f8be0079c531659141344cd1fd0a4f28419497f9722a3daafe3b4186f6b6457e060405160405180910390a35050565b600081519050620001cb816200027c565b92915050565b600081519050620001e28162000296565b92915050565b600080600060608486031215620001fe57600080fd5b60006200020e86828701620001ba565b93505060206200022186828701620001ba565b92505060406200023486828701620001d1565b9150509250925092565b60006200024b826200025c565b9050919050565b6000819050919050565b600073ffffffffffffffffffffffffffffffffffffffff82169050919050565b62000287816200023e565b81146200029357600080fd5b50565b620002a18162000252565b8114620002ad57600080fd5b50565b6115a480620002c06000396000f3fe60806040526004361061009c5760003560e01c80638b4bf33e116100645780638b4bf33e1461014e5780638da5cb5b14610179578063b214faa5146101a4578063bac426d0146101c0578063cbdd69b5146101e9578063f2fde38b146102145761009c565b80633ccfd60b146100a15780636fd7d970146100b8578063715018a6146100e35780637a9cffc8146100fa5780637bde82f214610125575b600080fd5b3480156100ad57600080fd5b506100b661023d565b005b3480156100c457600080fd5b506100cd61033d565b6040516100da9190610f1e565b60405180910390f35b3480156100ef57600080fd5b506100f8610367565b005b34801561010657600080fd5b5061010f61037b565b60405161011c9190611116565b60405180910390f35b34801561013157600080fd5b5061014c60048036038101906101479190610c83565b610380565b005b34801561015a57600080fd5b5061016361038c565b60405161017091906110fb565b60405180910390f35b34801561018557600080fd5b5061018e610391565b60405161019b9190610f1e565b60405180910390f35b6101be60048036038101906101b99190610c31565b6103ba565b005b3480156101cc57600080fd5b506101e760048036038101906101e29190610bdf565b6108d8565b005b3480156101f557600080fd5b506101fe610924565b60405161020b91906110fb565b60405180910390f35b34801561022057600080fd5b5061023b60048036038101906102369190610bdf565b61092a565b005b6102456109ae565b60004790506000811161028d576040517f08c379a0000000000000000000000000000000000000000000000000000000008152600401610284906110bb565b60405180910390fd5b60003373ffffffffffffffffffffffffffffffffffffffff16476040516102b390610f09565b60006040518083038185875af1925050503d80600081146102f0576040519150601f19603f3d011682016040523d82523d6000602084013e6102f5565b606091505b5050905080610339576040517f08c379a00000000000000000000000000000000000000000000000000000000081526004016103309061109b565b60405180910390fd5b5050565b6000600360009054906101000a900473ffffffffffffffffffffffffffffffffffffffff16905090565b61036f6109ae565b6103796000610a2c565b565b600281565b610388610af0565b5050565b602081565b60008060009054906101000a900473ffffffffffffffffffffffffffffffffffffffff16905090565b600034116103fd576040517f08c379a00000000000000000000000000000000000000000000000000000000081526004016103f490610ffb565b60405180910390fd5b600073ffffffffffffffffffffffffffffffffffffffff16600360009054906101000a900473ffffffffffffffffffffffffffffffffffffffff1673ffffffffffffffffffffffffffffffffffffffff16141561048f576040517f08c379a000000000000000000000000000000000000000000000000000000000815260040161048690610fbb565b60405180910390fd5b60006005543461049f91906111a7565b90506000600260009054906101000a900473ffffffffffffffffffffffffffffffffffffffff1673ffffffffffffffffffffffffffffffffffffffff166370a08231306040518263ffffffff1660e01b81526004016104fe9190610f1e565b60206040518083038186803b15801561051657600080fd5b505afa15801561052a573d6000803e3d6000fd5b505050506040513d601f19601f8201168201806040525081019061054e9190610c5a565b905081811015610593576040517f08c379a000000000000000000000000000000000000000000000000000000000815260040161058a9061103b565b60405180910390fd5b6000600260009054906101000a900473ffffffffffffffffffffffffffffffffffffffff1673ffffffffffffffffffffffffffffffffffffffff1663095ea7b3600360009054906101000a900473ffffffffffffffffffffffffffffffffffffffff16856040518363ffffffff1660e01b8152600401610614929190610f39565b602060405180830381600087803b15801561062e57600080fd5b505af1158015610642573d6000803e3d6000fd5b505050506040513d601f19601f820116820180604052508101906106669190610c08565b9050806106a8576040517f08c379a000000000000000000000000000000000000000000000000000000000815260040161069f9061105b565b60405180910390fd5b60003460001b602060001b866040516020016106c693929190610ecc565b60405160208183030381529060405290507fff51a1a2d0efa2fe2ea6996033898ee0a37d3fb78830d63666998a73331cde81816040516107069190610f99565b60405180910390a1600160009054906101000a900473ffffffffffffffffffffffffffffffffffffffff1673ffffffffffffffffffffffffffffffffffffffff166305e2ca176002600454846040518463ffffffff1660e01b815260040161077093929190611131565b600060405180830381600087803b15801561078a57600080fd5b505af115801561079e573d6000803e3d6000fd5b505050506000600260009054906101000a900473ffffffffffffffffffffffffffffffffffffffff1673ffffffffffffffffffffffffffffffffffffffff1663a9059cbb33876040518363ffffffff1660e01b8152600401610801929190610f39565b602060405180830381600087803b15801561081b57600080fd5b505af115801561082f573d6000803e3d6000fd5b505050506040513d601f19601f820116820180604052508101906108539190610c08565b905080610895576040517f08c379a000000000000000000000000000000000000000000000000000000000815260040161088c906110db565b60405180910390fd5b7f0a37b72bb67eee30e09084cf386f8a17817c57f620c3ab95fb25d6a20356ec773334876040516108c893929190610f62565b60405180910390a1505050505050565b6108e06109ae565b80600360006101000a81548173ffffffffffffffffffffffffffffffffffffffff021916908373ffffffffffffffffffffffffffffffffffffffff16021790555050565b60055481565b6109326109ae565b600073ffffffffffffffffffffffffffffffffffffffff168173ffffffffffffffffffffffffffffffffffffffff1614156109a2576040517f08c379a000000000000000000000000000000000000000000000000000000000815260040161099990610fdb565b60405180910390fd5b6109ab81610a2c565b50565b6109b6610b6e565b73ffffffffffffffffffffffffffffffffffffffff166109d4610391565b73ffffffffffffffffffffffffffffffffffffffff1614610a2a576040517f08c379a0000000000000000000000000000000000000000000000000000000008152600401610a219061107b565b60405180910390fd5b565b60008060009054906101000a900473ffffffffffffffffffffffffffffffffffffffff169050816000806101000a81548173ffffffffffffffffffffffffffffffffffffffff021916908373ffffffffffffffffffffffffffffffffffffffff1602179055508173ffffffffffffffffffffffffffffffffffffffff168173ffffffffffffffffffffffffffffffffffffffff167f8be0079c531659141344cd1fd0a4f28419497f9722a3daafe3b4186f6b6457e060405160405180910390a35050565b610af8610b6e565b73ffffffffffffffffffffffffffffffffffffffff16610b1661033d565b73ffffffffffffffffffffffffffffffffffffffff1614610b6c576040517f08c379a0000000000000000000000000000000000000000000000000000000008152600401610b639061101b565b60405180910390fd5b565b600033905090565b600081359050610b8581611512565b92915050565b600081519050610b9a81611529565b92915050565b600081359050610baf81611540565b92915050565b600081359050610bc481611557565b92915050565b600081519050610bd981611557565b92915050565b600060208284031215610bf157600080fd5b6000610bff84828501610b76565b91505092915050565b600060208284031215610c1a57600080fd5b6000610c2884828501610b8b565b91505092915050565b600060208284031215610c4357600080fd5b6000610c5184828501610ba0565b91505092915050565b600060208284031215610c6c57600080fd5b6000610c7a84828501610bca565b91505092915050565b60008060408385031215610c9657600080fd5b6000610ca485828601610bb5565b9250506020610cb585828601610b76565b9150509250929050565b610cc881611201565b82525050565b610cd78161121f565b82525050565b610cee610ce98261121f565b611293565b82525050565b6000610cff8261116f565b610d09818561117a565b9350610d19818560208601611260565b610d22816112cc565b840191505092915050565b6000610d3a601a83611196565b9150610d45826112dd565b602082019050919050565b6000610d5d602683611196565b9150610d6882611306565b604082019050919050565b6000610d80601b83611196565b9150610d8b82611355565b602082019050919050565b6000610da3602083611196565b9150610dae8261137e565b602082019050919050565b6000610dc6603483611196565b9150610dd1826113a7565b604082019050919050565b6000610de9602083611196565b9150610df4826113f6565b602082019050919050565b6000610e0c602083611196565b9150610e178261141f565b602082019050919050565b6000610e2f602d83611196565b9150610e3a82611448565b604082019050919050565b6000610e5260008361118b565b9150610e5d82611497565b600082019050919050565b6000610e75602183611196565b9150610e808261149a565b604082019050919050565b6000610e98602083611196565b9150610ea3826114e9565b602082019050919050565b610eb781611249565b82525050565b610ec681611253565b82525050565b6000610ed88286610cdd565b602082019150610ee88285610cdd565b602082019150610ef88284610cdd565b602082019150819050949350505050565b6000610f1482610e45565b9150819050919050565b6000602082019050610f336000830184610cbf565b92915050565b6000604082019050610f4e6000830185610cbf565b610f5b6020830184610eae565b9392505050565b6000606082019050610f776000830186610cbf565b610f846020830185610eae565b610f916040830184610eae565b949350505050565b60006020820190508181036000830152610fb38184610cf4565b905092915050565b60006020820190508181036000830152610fd481610d2d565b9050919050565b60006020820190508181036000830152610ff481610d50565b9050919050565b6000602082019050818103600083015261101481610d73565b9050919050565b6000602082019050818103600083015261103481610d96565b9050919050565b6000602082019050818103600083015261105481610db9565b9050919050565b6000602082019050818103600083015261107481610ddc565b9050919050565b6000602082019050818103600083015261109481610dff565b9050919050565b600060208201905081810360008301526110b481610e22565b9050919050565b600060208201905081810360008301526110d481610e68565b9050919050565b600060208201905081810360008301526110f481610e8b565b9050919050565b60006020820190506111106000830184610eae565b92915050565b600060208201905061112b6000830184610ebd565b92915050565b60006060820190506111466000830186610ebd565b6111536020830185610cce565b81810360408301526111658184610cf4565b9050949350505050565b600081519050919050565b600082825260208201905092915050565b600081905092915050565b600082825260208201905092915050565b60006111b282611249565b91506111bd83611249565b9250817fffffffffffffffffffffffffffffffffffffffffffffffffffffffffffffffff04831182151516156111f6576111f561129d565b5b828202905092915050565b600061120c82611229565b9050919050565b60008115159050919050565b6000819050919050565b600073ffffffffffffffffffffffffffffffffffffffff82169050919050565b6000819050919050565b600060ff82169050919050565b60005b8381101561127e578082015181840152602081019050611263565b8381111561128d576000848401525b50505050565b6000819050919050565b7f4e487b7100000000000000000000000000000000000000000000000000000000600052601160045260246000fd5b6000601f19601f8301169050919050565b7f48616e646c6572206973206e6f7420696e697469616c697a6564000000000000600082015250565b7f4f776e61626c653a206e6577206f776e657220697320746865207a65726f206160008201527f6464726573730000000000000000000000000000000000000000000000000000602082015250565b7f53656e642045544820746f2062757920736f6d6520746f6b656e730000000000600082015250565b7f4272696467653a2063616c6c6572206973206e6f742074686520627269646765600082015250565b7f56656e646f7220636f6e747261637420686173206e6f7420656e6f756768207460008201527f6f6b656e7320696e206974732062616c616e6365000000000000000000000000602082015250565b7f4661696c656420746f20617070726f766520746f6b656e207472616e73666572600082015250565b7f4f776e61626c653a2063616c6c6572206973206e6f7420746865206f776e6572600082015250565b7f4661696c656420746f2073656e6420757365722062616c616e6365206261636b60008201527f20746f20746865206f776e657200000000000000000000000000000000000000602082015250565b50565b7f4f776e657220686173206e6f742062616c616e636520746f207769746864726160008201527f7700000000000000000000000000000000000000000000000000000000000000602082015250565b7f4661696c656420746f207472616e7366657220746f6b656e20746f2075736572600082015250565b61151b81611201565b811461152657600080fd5b50565b61153281611213565b811461153d57600080fd5b50565b6115498161121f565b811461155457600080fd5b50565b61156081611249565b811461156b57600080fd5b5056fea26469706673582212208af6dded8b4ea48dc154fe30b99fd51eda79c6073999c4b4ddceabeddaeb0e2864736f6c63430008040033",
  "linkReferences": {},
  "deployedLinkReferences": {}
}