{
  "_format": "hh-sol-artifact-1",
  "contractName": "Vendor",
  "sourceName": "src/Vendor.sol",
  "abi": [
    {
      "inputs": [
        {
          "internalType": "address",
          "name": "bridge",
          "type": "address"
        },
        {
          "internalType": "address",
          "name": "tokenAddress",
          "type": "address"
        },
        {
          "internalType": "address",
          "name": "handlerAddress",
          "type": "address"
        },
        {
          "internalType": "bytes32",
          "name": "resourceID",
          "type": "bytes32"
        }
      ],
      "stateMutability": "nonpayable",
      "type": "constructor"
    },
    {
      "anonymous": false,
      "inputs": [
        {
          "indexed": false,
          "internalType": "address",
          "name": "buyer",
          "type": "address"
        },
        {
          "indexed": false,
          "internalType": "uint256",
          "name": "amountOfETH",
          "type": "uint256"
        },
        {
          "indexed": false,
          "internalType": "uint256",
          "name": "amountOfTokens",
          "type": "uint256"
        }
      ],
      "name": "BuyTokens",
      "type": "event"
    },
    {
      "anonymous": false,
      "inputs": [
        {
          "indexed": false,
          "internalType": "bytes",
          "name": "data",
          "type": "bytes"
        }
      ],
      "name": "CallData",
      "type": "event"
    },
    {
      "anonymous": false,
      "inputs": [
        {
          "indexed": true,
          "internalType": "address",
          "name": "previousOwner",
          "type": "address"
        },
        {
          "indexed": true,
          "internalType": "address",
          "name": "newOwner",
          "type": "address"
        }
      ],
      "name": "OwnershipTransferred",
      "type": "event"
    },
    {
      "inputs": [
        {
          "internalType": "bytes32",
          "name": "to",
          "type": "bytes32"
        }
      ],
      "name": "deposit",
      "outputs": [],
      "stateMutability": "payable",
      "type": "function"
    },
    {
      "inputs": [],
      "name": "destinationChainID",
      "outputs": [
        {
          "internalType": "uint8",
          "name": "",
          "type": "uint8"
        }
      ],
      "stateMutability": "view",
      "type": "function"
    },
    {
      "inputs": [],
      "name": "owner",
      "outputs": [
        {
          "internalType": "address",
          "name": "",
          "type": "address"
        }
      ],
      "stateMutability": "view",
      "type": "function"
    },
    {
      "inputs": [],
      "name": "renounceOwnership",
      "outputs": [],
      "stateMutability": "nonpayable",
      "type": "function"
    },
    {
      "inputs": [],
      "name": "substrateAddressLen",
      "outputs": [
        {
          "internalType": "uint256",
          "name": "",
          "type": "uint256"
        }
      ],
      "stateMutability": "view",
      "type": "function"
    },
    {
      "inputs": [],
      "name": "tokensPerEth",
      "outputs": [
        {
          "internalType": "uint256",
          "name": "",
          "type": "uint256"
        }
      ],
      "stateMutability": "view",
      "type": "function"
    },
    {
      "inputs": [
        {
          "internalType": "address",
          "name": "newOwner",
          "type": "address"
        }
      ],
      "name": "transferOwnership",
      "outputs": [],
      "stateMutability": "nonpayable",
      "type": "function"
    },
    {
      "inputs": [],
      "name": "withdraw",
      "outputs": [],
      "stateMutability": "nonpayable",
      "type": "function"
    }
  ],
  "bytecode": "0x608060405260016005553480156200001657600080fd5b50604051620015633803806200156383398181016040528101906200003c91906200022a565b6200005c620000506200013060201b60201c565b6200013860201b60201c565b83600160006101000a81548173ffffffffffffffffffffffffffffffffffffffff021916908373ffffffffffffffffffffffffffffffffffffffff16021790555082600260006101000a81548173ffffffffffffffffffffffffffffffffffffffff021916908373ffffffffffffffffffffffffffffffffffffffff16021790555081600360006101000a81548173ffffffffffffffffffffffffffffffffffffffff021916908373ffffffffffffffffffffffffffffffffffffffff160217905550806004819055505050505062000308565b600033905090565b60008060009054906101000a900473ffffffffffffffffffffffffffffffffffffffff169050816000806101000a81548173ffffffffffffffffffffffffffffffffffffffff021916908373ffffffffffffffffffffffffffffffffffffffff1602179055508173ffffffffffffffffffffffffffffffffffffffff168173ffffffffffffffffffffffffffffffffffffffff167f8be0079c531659141344cd1fd0a4f28419497f9722a3daafe3b4186f6b6457e060405160405180910390a35050565b6000815190506200020d81620002d4565b92915050565b6000815190506200022481620002ee565b92915050565b600080600080608085870312156200024157600080fd5b60006200025187828801620001fc565b94505060206200026487828801620001fc565b93505060406200027787828801620001fc565b92505060606200028a8782880162000213565b91505092959194509250565b6000620002a382620002b4565b9050919050565b6000819050919050565b600073ffffffffffffffffffffffffffffffffffffffff82169050919050565b620002df8162000296565b8114620002eb57600080fd5b50565b620002f981620002aa565b81146200030557600080fd5b50565b61124b80620003186000396000f3fe60806040526004361061007b5760003560e01c80638da5cb5b1161004e5780638da5cb5b14610104578063b214faa51461012f578063cbdd69b51461014b578063f2fde38b146101765761007b565b80633ccfd60b14610080578063715018a6146100975780637a9cffc8146100ae5780638b4bf33e146100d9575b600080fd5b34801561008c57600080fd5b5061009561019f565b005b3480156100a357600080fd5b506100ac61029f565b005b3480156100ba57600080fd5b506100c36102b3565b6040516100d09190610e0f565b60405180910390f35b3480156100e557600080fd5b506100ee6102b8565b6040516100fb9190610df4565b60405180910390f35b34801561011057600080fd5b506101196102bd565b6040516101269190610c57565b60405180910390f35b610149600480360381019061014491906109ec565b6102e6565b005b34801561015757600080fd5b50610160610772565b60405161016d9190610df4565b60405180910390f35b34801561018257600080fd5b5061019d6004803603810190610198919061099a565b610778565b005b6101a76107fc565b6000479050600081116101ef576040517f08c379a00000000000000000000000000000000000000000000000000000000081526004016101e690610db4565b60405180910390fd5b60003373ffffffffffffffffffffffffffffffffffffffff164760405161021590610c42565b60006040518083038185875af1925050503d8060008114610252576040519150601f19603f3d011682016040523d82523d6000602084013e610257565b606091505b505090508061029b576040517f08c379a000000000000000000000000000000000000000000000000000000000815260040161029290610d94565b60405180910390fd5b5050565b6102a76107fc565b6102b1600061087a565b565b600281565b602081565b60008060009054906101000a900473ffffffffffffffffffffffffffffffffffffffff16905090565b60003411610329576040517f08c379a000000000000000000000000000000000000000000000000000000000815260040161032090610d14565b60405180910390fd5b6000600554346103399190610ea0565b90506000600260009054906101000a900473ffffffffffffffffffffffffffffffffffffffff1673ffffffffffffffffffffffffffffffffffffffff166370a08231306040518263ffffffff1660e01b81526004016103989190610c57565b60206040518083038186803b1580156103b057600080fd5b505afa1580156103c4573d6000803e3d6000fd5b505050506040513d601f19601f820116820180604052508101906103e89190610a15565b90508181101561042d576040517f08c379a000000000000000000000000000000000000000000000000000000000815260040161042490610d34565b60405180910390fd5b6000600260009054906101000a900473ffffffffffffffffffffffffffffffffffffffff1673ffffffffffffffffffffffffffffffffffffffff1663095ea7b3600360009054906101000a900473ffffffffffffffffffffffffffffffffffffffff16856040518363ffffffff1660e01b81526004016104ae929190610c72565b602060405180830381600087803b1580156104c857600080fd5b505af11580156104dc573d6000803e3d6000fd5b505050506040513d601f19601f8201168201806040525081019061050091906109c3565b905080610542576040517f08c379a000000000000000000000000000000000000000000000000000000000815260040161053990610d54565b60405180910390fd5b60003460001b602060001b8660405160200161056093929190610c05565b60405160208183030381529060405290507fff51a1a2d0efa2fe2ea6996033898ee0a37d3fb78830d63666998a73331cde81816040516105a09190610cd2565b60405180910390a1600160009054906101000a900473ffffffffffffffffffffffffffffffffffffffff1673ffffffffffffffffffffffffffffffffffffffff166305e2ca176002600454846040518463ffffffff1660e01b815260040161060a93929190610e2a565b600060405180830381600087803b15801561062457600080fd5b505af1158015610638573d6000803e3d6000fd5b505050506000600260009054906101000a900473ffffffffffffffffffffffffffffffffffffffff1673ffffffffffffffffffffffffffffffffffffffff1663a9059cbb33876040518363ffffffff1660e01b815260040161069b929190610c72565b602060405180830381600087803b1580156106b557600080fd5b505af11580156106c9573d6000803e3d6000fd5b505050506040513d601f19601f820116820180604052508101906106ed91906109c3565b90508061072f576040517f08c379a000000000000000000000000000000000000000000000000000000000815260040161072690610dd4565b60405180910390fd5b7f0a37b72bb67eee30e09084cf386f8a17817c57f620c3ab95fb25d6a20356ec7733348760405161076293929190610c9b565b60405180910390a1505050505050565b60055481565b6107806107fc565b600073ffffffffffffffffffffffffffffffffffffffff168173ffffffffffffffffffffffffffffffffffffffff1614156107f0576040517f08c379a00000000000000000000000000000000000000000000000000000000081526004016107e790610cf4565b60405180910390fd5b6107f98161087a565b50565b61080461093e565b73ffffffffffffffffffffffffffffffffffffffff166108226102bd565b73ffffffffffffffffffffffffffffffffffffffff1614610878576040517f08c379a000000000000000000000000000000000000000000000000000000000815260040161086f90610d74565b60405180910390fd5b565b60008060009054906101000a900473ffffffffffffffffffffffffffffffffffffffff169050816000806101000a81548173ffffffffffffffffffffffffffffffffffffffff021916908373ffffffffffffffffffffffffffffffffffffffff1602179055508173ffffffffffffffffffffffffffffffffffffffff168173ffffffffffffffffffffffffffffffffffffffff167f8be0079c531659141344cd1fd0a4f28419497f9722a3daafe3b4186f6b6457e060405160405180910390a35050565b600033905090565b600081359050610955816111b9565b92915050565b60008151905061096a816111d0565b92915050565b60008135905061097f816111e7565b92915050565b600081519050610994816111fe565b92915050565b6000602082840312156109ac57600080fd5b60006109ba84828501610946565b91505092915050565b6000602082840312156109d557600080fd5b60006109e38482850161095b565b91505092915050565b6000602082840312156109fe57600080fd5b6000610a0c84828501610970565b91505092915050565b600060208284031215610a2757600080fd5b6000610a3584828501610985565b91505092915050565b610a4781610efa565b82525050565b610a5681610f18565b82525050565b610a6d610a6882610f18565b610f8c565b82525050565b6000610a7e82610e68565b610a888185610e73565b9350610a98818560208601610f59565b610aa181610fc5565b840191505092915050565b6000610ab9602683610e8f565b9150610ac482610fd6565b604082019050919050565b6000610adc601b83610e8f565b9150610ae782611025565b602082019050919050565b6000610aff603483610e8f565b9150610b0a8261104e565b604082019050919050565b6000610b22602083610e8f565b9150610b2d8261109d565b602082019050919050565b6000610b45602083610e8f565b9150610b50826110c6565b602082019050919050565b6000610b68602d83610e8f565b9150610b73826110ef565b604082019050919050565b6000610b8b600083610e84565b9150610b968261113e565b600082019050919050565b6000610bae602183610e8f565b9150610bb982611141565b604082019050919050565b6000610bd1602083610e8f565b9150610bdc82611190565b602082019050919050565b610bf081610f42565b82525050565b610bff81610f4c565b82525050565b6000610c118286610a5c565b602082019150610c218285610a5c565b602082019150610c318284610a5c565b602082019150819050949350505050565b6000610c4d82610b7e565b9150819050919050565b6000602082019050610c6c6000830184610a3e565b92915050565b6000604082019050610c876000830185610a3e565b610c946020830184610be7565b9392505050565b6000606082019050610cb06000830186610a3e565b610cbd6020830185610be7565b610cca6040830184610be7565b949350505050565b60006020820190508181036000830152610cec8184610a73565b905092915050565b60006020820190508181036000830152610d0d81610aac565b9050919050565b60006020820190508181036000830152610d2d81610acf565b9050919050565b60006020820190508181036000830152610d4d81610af2565b9050919050565b60006020820190508181036000830152610d6d81610b15565b9050919050565b60006020820190508181036000830152610d8d81610b38565b9050919050565b60006020820190508181036000830152610dad81610b5b565b9050919050565b60006020820190508181036000830152610dcd81610ba1565b9050919050565b60006020820190508181036000830152610ded81610bc4565b9050919050565b6000602082019050610e096000830184610be7565b92915050565b6000602082019050610e246000830184610bf6565b92915050565b6000606082019050610e3f6000830186610bf6565b610e4c6020830185610a4d565b8181036040830152610e5e8184610a73565b9050949350505050565b600081519050919050565b600082825260208201905092915050565b600081905092915050565b600082825260208201905092915050565b6000610eab82610f42565b9150610eb683610f42565b9250817fffffffffffffffffffffffffffffffffffffffffffffffffffffffffffffffff0483118215151615610eef57610eee610f96565b5b828202905092915050565b6000610f0582610f22565b9050919050565b60008115159050919050565b6000819050919050565b600073ffffffffffffffffffffffffffffffffffffffff82169050919050565b6000819050919050565b600060ff82169050919050565b60005b83811015610f77578082015181840152602081019050610f5c565b83811115610f86576000848401525b50505050565b6000819050919050565b7f4e487b7100000000000000000000000000000000000000000000000000000000600052601160045260246000fd5b6000601f19601f8301169050919050565b7f4f776e61626c653a206e6577206f776e657220697320746865207a65726f206160008201527f6464726573730000000000000000000000000000000000000000000000000000602082015250565b7f53656e642045544820746f2062757920736f6d6520746f6b656e730000000000600082015250565b7f56656e646f7220636f6e747261637420686173206e6f7420656e6f756768207460008201527f6f6b656e7320696e206974732062616c616e6365000000000000000000000000602082015250565b7f4661696c656420746f20617070726f766520746f6b656e207472616e73666572600082015250565b7f4f776e61626c653a2063616c6c6572206973206e6f7420746865206f776e6572600082015250565b7f4661696c656420746f2073656e6420757365722062616c616e6365206261636b60008201527f20746f20746865206f776e657200000000000000000000000000000000000000602082015250565b50565b7f4f776e657220686173206e6f742062616c616e636520746f207769746864726160008201527f7700000000000000000000000000000000000000000000000000000000000000602082015250565b7f4661696c656420746f207472616e7366657220746f6b656e20746f2075736572600082015250565b6111c281610efa565b81146111cd57600080fd5b50565b6111d981610f0c565b81146111e457600080fd5b50565b6111f081610f18565b81146111fb57600080fd5b50565b61120781610f42565b811461121257600080fd5b5056fea26469706673582212209b0f8177fc992f9ded90075233c83f188b5e6370caaa2b39d9ae71d080a5fef564736f6c63430008040033",
  "linkReferences": {},
  "deployedLinkReferences": {}
}